{
  "contractName": "CarExchange",
  "abi": [
    {
      "constant": false,
      "inputs": [],
      "name": "emergencyToggle",
      "outputs": [],
      "payable": false,
      "stateMutability": "nonpayable",
      "type": "function"
    },
    {
      "constant": true,
      "inputs": [],
      "name": "name",
      "outputs": [
        {
          "name": "",
          "type": "string"
        }
      ],
      "payable": false,
      "stateMutability": "view",
      "type": "function"
    },
    {
      "constant": false,
      "inputs": [
        {
          "name": "_spender",
          "type": "address"
        },
        {
          "name": "_value",
          "type": "uint256"
        }
      ],
      "name": "approve",
      "outputs": [
        {
          "name": "success",
          "type": "bool"
        }
      ],
      "payable": false,
      "stateMutability": "nonpayable",
      "type": "function"
    },
    {
      "constant": true,
      "inputs": [],
      "name": "totalSupply",
      "outputs": [
        {
          "name": "",
          "type": "uint256"
        }
      ],
      "payable": false,
      "stateMutability": "view",
      "type": "function"
    },
    {
      "constant": false,
      "inputs": [
        {
          "name": "_from",
          "type": "address"
        },
        {
          "name": "_to",
          "type": "address"
        },
        {
          "name": "_value",
          "type": "uint256"
        }
      ],
      "name": "transferFrom",
      "outputs": [
        {
          "name": "success",
          "type": "bool"
        }
      ],
      "payable": false,
      "stateMutability": "nonpayable",
      "type": "function"
    },
    {
      "constant": true,
      "inputs": [],
      "name": "tokenSaleRate",
      "outputs": [
        {
          "name": "",
          "type": "uint256"
        }
      ],
      "payable": false,
      "stateMutability": "view",
      "type": "function"
    },
    {
      "constant": true,
      "inputs": [],
      "name": "decimals",
      "outputs": [
        {
          "name": "",
          "type": "uint256"
        }
      ],
      "payable": false,
      "stateMutability": "view",
      "type": "function"
    },
    {
      "constant": false,
      "inputs": [
        {
          "name": "_to",
          "type": "address"
        },
        {
          "name": "_amount",
          "type": "uint256"
        }
      ],
      "name": "mint",
      "outputs": [
        {
          "name": "",
          "type": "bool"
        }
      ],
      "payable": false,
      "stateMutability": "nonpayable",
      "type": "function"
    },
    {
      "constant": true,
      "inputs": [],
      "name": "version",
      "outputs": [
        {
          "name": "",
          "type": "string"
        }
      ],
      "payable": false,
      "stateMutability": "view",
      "type": "function"
    },
    {
      "constant": true,
      "inputs": [],
      "name": "tokenCreationCap",
      "outputs": [
        {
          "name": "",
          "type": "uint256"
        }
      ],
      "payable": false,
      "stateMutability": "view",
      "type": "function"
    },
    {
      "constant": true,
      "inputs": [
        {
          "name": "_owner",
          "type": "address"
        }
      ],
      "name": "balanceOf",
      "outputs": [
        {
          "name": "balance",
          "type": "uint256"
        }
      ],
      "payable": false,
      "stateMutability": "view",
      "type": "function"
    },
    {
      "constant": true,
      "inputs": [],
      "name": "owner",
      "outputs": [
        {
          "name": "",
          "type": "address"
        }
      ],
      "payable": false,
      "stateMutability": "view",
      "type": "function"
    },
    {
      "constant": true,
      "inputs": [],
      "name": "symbol",
      "outputs": [
        {
          "name": "",
          "type": "string"
        }
      ],
      "payable": false,
      "stateMutability": "view",
      "type": "function"
    },
    {
      "constant": false,
      "inputs": [],
      "name": "buyToken",
      "outputs": [],
      "payable": true,
      "stateMutability": "payable",
      "type": "function"
    },
    {
      "constant": true,
      "inputs": [],
      "name": "ethFundDeposit",
      "outputs": [
        {
          "name": "",
          "type": "address"
        }
      ],
      "payable": false,
      "stateMutability": "view",
      "type": "function"
    },
    {
      "constant": false,
      "inputs": [
        {
          "name": "_to",
          "type": "address"
        },
        {
          "name": "_value",
          "type": "uint256"
        }
      ],
      "name": "transfer",
      "outputs": [
        {
          "name": "success",
          "type": "bool"
        }
      ],
      "payable": false,
      "stateMutability": "nonpayable",
      "type": "function"
    },
    {
      "constant": true,
      "inputs": [],
      "name": "emergencyFlag",
      "outputs": [
        {
          "name": "",
          "type": "bool"
        }
      ],
      "payable": false,
      "stateMutability": "view",
      "type": "function"
    },
    {
      "constant": true,
      "inputs": [
        {
          "name": "_owner",
          "type": "address"
        },
        {
          "name": "_spender",
          "type": "address"
        }
      ],
      "name": "allowance",
      "outputs": [
        {
          "name": "remaining",
          "type": "uint256"
        }
      ],
      "payable": false,
      "stateMutability": "view",
      "type": "function"
    },
    {
      "constant": false,
      "inputs": [
        {
          "name": "newOwner",
          "type": "address"
        }
      ],
      "name": "transferOwnership",
      "outputs": [],
      "payable": false,
      "stateMutability": "nonpayable",
      "type": "function"
    },
    {
      "payable": true,
      "stateMutability": "payable",
      "type": "fallback"
    },
    {
      "anonymous": false,
      "inputs": [
        {
          "indexed": true,
          "name": "_to",
          "type": "address"
        },
        {
          "indexed": false,
          "name": "_value",
          "type": "uint256"
        }
      ],
      "name": "CreateXCHNG",
      "type": "event"
    },
    {
      "anonymous": false,
      "inputs": [
        {
          "indexed": true,
          "name": "_to",
          "type": "address"
        },
        {
          "indexed": false,
          "name": "_value",
          "type": "uint256"
        }
      ],
      "name": "Mint",
      "type": "event"
    },
    {
      "anonymous": false,
      "inputs": [
        {
          "indexed": true,
          "name": "_from",
          "type": "address"
        },
        {
          "indexed": true,
          "name": "_to",
          "type": "address"
        },
        {
          "indexed": false,
          "name": "_value",
          "type": "uint256"
        }
      ],
      "name": "Transfer",
      "type": "event"
    },
    {
      "anonymous": false,
      "inputs": [
        {
          "indexed": true,
          "name": "_owner",
          "type": "address"
        },
        {
          "indexed": true,
          "name": "_spender",
          "type": "address"
        },
        {
          "indexed": false,
          "name": "_value",
          "type": "uint256"
        }
      ],
      "name": "Approval",
      "type": "event"
    },
    {
      "anonymous": false,
      "inputs": [
        {
          "indexed": true,
          "name": "_vinNumber",
          "type": "uint256"
        },
        {
          "indexed": true,
          "name": "_owner",
          "type": "address"
        }
      ],
      "name": "Registered",
      "type": "event"
    },
    {
      "anonymous": false,
      "inputs": [
        {
          "indexed": true,
          "name": "_vinNumber",
          "type": "uint256"
        },
        {
          "indexed": true,
          "name": "_oldOwner",
          "type": "address"
        },
        {
          "indexed": true,
          "name": "_newOwner",
          "type": "address"
        },
        {
          "indexed": false,
          "name": "_value",
          "type": "uint256"
        }
      ],
      "name": "Bought",
      "type": "event"
    },
    {
      "anonymous": false,
      "inputs": [
        {
          "indexed": true,
          "name": "_vinNumber",
          "type": "uint256"
        },
        {
          "indexed": true,
          "name": "_carOwner",
          "type": "address"
        },
        {
          "indexed": false,
          "name": "_value",
          "type": "uint256"
        }
      ],
      "name": "Listed",
      "type": "event"
    },
    {
      "constant": false,
      "inputs": [
        {
          "name": "_owner",
          "type": "address"
        },
        {
          "name": "_vinNumber",
          "type": "uint256"
        }
      ],
      "name": "register",
      "outputs": [
        {
          "name": "success",
          "type": "bool"
        }
      ],
      "payable": false,
      "stateMutability": "nonpayable",
      "type": "function"
    },
    {
      "constant": false,
      "inputs": [
        {
          "name": "_vinNumber",
          "type": "uint256"
        },
        {
          "name": "_value",
          "type": "uint256"
        }
      ],
      "name": "buyCar",
      "outputs": [
        {
          "name": "success",
          "type": "bool"
        }
      ],
      "payable": false,
      "stateMutability": "nonpayable",
      "type": "function"
    },
    {
      "constant": false,
      "inputs": [
        {
          "name": "_vinNumber",
          "type": "uint256"
        },
        {
          "name": "_value",
          "type": "uint256"
        }
      ],
      "name": "list",
      "outputs": [
        {
          "name": "success",
          "type": "bool"
        }
      ],
      "payable": false,
      "stateMutability": "nonpayable",
      "type": "function"
    },
    {
      "constant": true,
      "inputs": [
        {
          "name": "_owner",
          "type": "address"
        }
      ],
      "name": "ownedCars",
      "outputs": [
        {
          "name": "_vinNumbers",
          "type": "uint256[]"
        }
      ],
      "payable": false,
      "stateMutability": "view",
      "type": "function"
    },
    {
      "constant": true,
      "inputs": [
        {
          "name": "_vinNumber",
          "type": "uint256"
        }
      ],
      "name": "price",
      "outputs": [
        {
          "name": "",
          "type": "uint256"
        }
      ],
      "payable": false,
      "stateMutability": "view",
      "type": "function"
    }
  ],
  "bytecode": "0x60806040526040805190810160405280600381526020017f312e300000000000000000000000000000000000000000000000000000000000815250600490805190602001906200005192919062000099565b5033600360006101000a81548173ffffffffffffffffffffffffffffffffffffffff021916908373ffffffffffffffffffffffffffffffffffffffff16021790555062000148565b828054600181600116156101000203166002900490600052602060002090601f016020900481019282601f10620000dc57805160ff19168380011785556200010d565b828001600101855582156200010d579182015b828111156200010c578251825591602001919060010190620000ef565b5b5090506200011c919062000120565b5090565b6200014591905b808211156200014157600081600090555060010162000127565b5090565b90565b611c7480620001586000396000f30060806040526004361061013d576000357c0100000000000000000000000000000000000000000000000000000000900463ffffffff168062a5359814610147578063018cc90d1461015e57806306fdde03146101ad578063095ea7b31461023d57806318160ddd146102a25780631b5611ea146102cd57806323b872dd1461036557806326a49e37146103ea57806328cc41501461042b578063313ce5671461045657806340c10f191461048157806350fd7367146104e657806354fd4d50146105355780636d705ebb146105c55780636f7920fd1461062a57806370a08231146106555780638da5cb5b146106ac57806395d89b4114610703578063a482171914610793578063a81c3bdf1461079d578063a9059cbb146107f4578063b4007cda14610859578063dd62ed3e14610888578063f2fde38b146108ff575b610145610942565b005b34801561015357600080fd5b5061015c610a2d565b005b34801561016a57600080fd5b506101936004803603810190808035906020019092919080359060200190929190505050610ab5565b604051808215151515815260200191505060405180910390f35b3480156101b957600080fd5b506101c2610e65565b6040518080602001828103825283818151815260200191508051906020019080838360005b838110156102025780820151818401526020810190506101e7565b50505050905090810190601f16801561022f5780820380516001836020036101000a031916815260200191505b509250505060405180910390f35b34801561024957600080fd5b50610288600480360381019080803573ffffffffffffffffffffffffffffffffffffffff16906020019092919080359060200190929190505050610e9e565b604051808215151515815260200191505060405180910390f35b3480156102ae57600080fd5b506102b7610f90565b6040518082815260200191505060405180910390f35b3480156102d957600080fd5b5061030e600480360381019080803573ffffffffffffffffffffffffffffffffffffffff169060200190929190505050610f96565b6040518080602001828103825283818151815260200191508051906020019060200280838360005b83811015610351578082015181840152602081019050610336565b505050509050019250505060405180910390f35b34801561037157600080fd5b506103d0600480360381019080803573ffffffffffffffffffffffffffffffffffffffff169060200190929190803573ffffffffffffffffffffffffffffffffffffffff16906020019092919080359060200190929190505050611030565b604051808215151515815260200191505060405180910390f35b3480156103f657600080fd5b50610415600480360381019080803590602001909291905050506112ac565b6040518082815260200191505060405180910390f35b34801561043757600080fd5b506104406112fa565b6040518082815260200191505060405180910390f35b34801561046257600080fd5b5061046b611300565b6040518082815260200191505060405180910390f35b34801561048d57600080fd5b506104cc600480360381019080803573ffffffffffffffffffffffffffffffffffffffff16906020019092919080359060200190929190505050611305565b604051808215151515815260200191505060405180910390f35b3480156104f257600080fd5b5061051b6004803603810190808035906020019092919080359060200190929190505050611449565b604051808215151515815260200191505060405180910390f35b34801561054157600080fd5b5061054a6115b8565b6040518080602001828103825283818151815260200191508051906020019080838360005b8381101561058a57808201518184015260208101905061056f565b50505050905090810190601f1680156105b75780820380516001836020036101000a031916815260200191505b509250505060405180910390f35b3480156105d157600080fd5b50610610600480360381019080803573ffffffffffffffffffffffffffffffffffffffff16906020019092919080359060200190929190505050611656565b604051808215151515815260200191505060405180910390f35b34801561063657600080fd5b5061063f6117c2565b6040518082815260200191505060405180910390f35b34801561066157600080fd5b50610696600480360381019080803573ffffffffffffffffffffffffffffffffffffffff1690602001909291905050506117d0565b6040518082815260200191505060405180910390f35b3480156106b857600080fd5b506106c1611819565b604051808273ffffffffffffffffffffffffffffffffffffffff1673ffffffffffffffffffffffffffffffffffffffff16815260200191505060405180910390f35b34801561070f57600080fd5b5061071861183f565b6040518080602001828103825283818151815260200191508051906020019080838360005b8381101561075857808201518184015260208101905061073d565b50505050905090810190601f1680156107855780820380516001836020036101000a031916815260200191505b509250505060405180910390f35b61079b611878565b005b3480156107a957600080fd5b506107b2611882565b604051808273ffffffffffffffffffffffffffffffffffffffff1673ffffffffffffffffffffffffffffffffffffffff16815260200191505060405180910390f35b34801561080057600080fd5b5061083f600480360381019080803573ffffffffffffffffffffffffffffffffffffffff1690602001909291908035906020019092919050505061189a565b604051808215151515815260200191505060405180910390f35b34801561086557600080fd5b5061086e611a03565b604051808215151515815260200191505060405180910390f35b34801561089457600080fd5b506108e9600480360381019080803573ffffffffffffffffffffffffffffffffffffffff169060200190929190803573ffffffffffffffffffffffffffffffffffffffff169060200190929190505050611a16565b6040518082815260200191505060405180910390f35b34801561090b57600080fd5b50610940600480360381019080803573ffffffffffffffffffffffffffffffffffffffff169060200190929190505050611a9d565b005b60008061094d611b74565b91506109593483611b7e565b905061096760005482611bb1565b6000819055506012600a0a6305f5e10002600054111561098657600080fd5b80600160003373ffffffffffffffffffffffffffffffffffffffff1673ffffffffffffffffffffffffffffffffffffffff168152602001908152602001600020600082825401925050819055506109db611bdb565b3373ffffffffffffffffffffffffffffffffffffffff167f1f0feb4ef88dcb1b4abe347ed0ddcb19fb7d7b1d9fc01fe62cafdaf9ed3b6679826040518082815260200191505060405180910390a25050565b600360009054906101000a900473ffffffffffffffffffffffffffffffffffffffff1673ffffffffffffffffffffffffffffffffffffffff163373ffffffffffffffffffffffffffffffffffffffff16141515610a8957600080fd5b600560009054906101000a900460ff1615600560006101000a81548160ff021916908315150217905550565b6000806000801515600a600087815260200190815260200160002060009054906101000a900460ff1615151415610aeb57600080fd5b600015156008600087815260200190815260200160002060009054906101000a900460ff1615151415610b1d57600080fd5b836009600087815260200190815260200160002054141515610b3e57600080fd5b3373ffffffffffffffffffffffffffffffffffffffff166007600087815260200190815260200160002060009054906101000a900473ffffffffffffffffffffffffffffffffffffffff1673ffffffffffffffffffffffffffffffffffffffff161415610baa57600080fd5b6007600086815260200190815260200160002060009054906101000a900473ffffffffffffffffffffffffffffffffffffffff169150610bea828561189a565b50600090505b600660008373ffffffffffffffffffffffffffffffffffffffff1673ffffffffffffffffffffffffffffffffffffffff16815260200190815260200160002060000180549050811015610d095784600660008473ffffffffffffffffffffffffffffffffffffffff1673ffffffffffffffffffffffffffffffffffffffff16815260200190815260200160002060000182815481101515610c8d57fe5b90600052602060002001541415610cfc57600660008373ffffffffffffffffffffffffffffffffffffffff1673ffffffffffffffffffffffffffffffffffffffff16815260200190815260200160002060000181815481101515610ced57fe5b90600052602060002001600090555b8080600101915050610bf0565b600660003373ffffffffffffffffffffffffffffffffffffffff1673ffffffffffffffffffffffffffffffffffffffff168152602001908152602001600020600001859080600181540180825580915050906001820390600052602060002001600090919290919091505550336007600087815260200190815260200160002060006101000a81548173ffffffffffffffffffffffffffffffffffffffff021916908373ffffffffffffffffffffffffffffffffffffffff1602179055506000600a600087815260200190815260200160002060006101000a81548160ff0219169083151502179055503373ffffffffffffffffffffffffffffffffffffffff168273ffffffffffffffffffffffffffffffffffffffff16867f888231f55a3cd8fd72276bc1b12ed5a60f8d92e62d288e64bf29dd6e5fc7809a876040518082815260200191505060405180910390a460019250505092915050565b6040805190810160405280600981526020017f5843484e47436f696e000000000000000000000000000000000000000000000081525081565b600081600260003373ffffffffffffffffffffffffffffffffffffffff1673ffffffffffffffffffffffffffffffffffffffff16815260200190815260200160002060008573ffffffffffffffffffffffffffffffffffffffff1673ffffffffffffffffffffffffffffffffffffffff168152602001908152602001600020819055508273ffffffffffffffffffffffffffffffffffffffff163373ffffffffffffffffffffffffffffffffffffffff167f8c5be1e5ebec7d5bd14f71427d1e84f3dd0314c0f7b2291e5b200ac8c7c3b925846040518082815260200191505060405180910390a36001905092915050565b60005481565b6060600660008373ffffffffffffffffffffffffffffffffffffffff1673ffffffffffffffffffffffffffffffffffffffff16815260200190815260200160002060000180548060200260200160405190810160405280929190818152602001828054801561102457602002820191906000526020600020905b815481526020019060010190808311611010575b50505050509050919050565b600081600160008673ffffffffffffffffffffffffffffffffffffffff1673ffffffffffffffffffffffffffffffffffffffff16815260200190815260200160002054101580156110fd575081600260008673ffffffffffffffffffffffffffffffffffffffff1673ffffffffffffffffffffffffffffffffffffffff16815260200190815260200160002060003373ffffffffffffffffffffffffffffffffffffffff1673ffffffffffffffffffffffffffffffffffffffff1681526020019081526020016000205410155b80156111095750600082115b156112a05781600160008573ffffffffffffffffffffffffffffffffffffffff1673ffffffffffffffffffffffffffffffffffffffff1681526020019081526020016000206000828254019250508190555081600160008673ffffffffffffffffffffffffffffffffffffffff1673ffffffffffffffffffffffffffffffffffffffff1681526020019081526020016000206000828254039250508190555081600260008673ffffffffffffffffffffffffffffffffffffffff1673ffffffffffffffffffffffffffffffffffffffff16815260200190815260200160002060003373ffffffffffffffffffffffffffffffffffffffff1673ffffffffffffffffffffffffffffffffffffffff168152602001908152602001600020600082825403925050819055508273ffffffffffffffffffffffffffffffffffffffff168473ffffffffffffffffffffffffffffffffffffffff167fddf252ad1be2c89b69c2b068fc378daa952ba7f163c4a11628f55a4df523b3ef846040518082815260200191505060405180910390a3600190506112a5565b600090505b9392505050565b6000801515600a600084815260200190815260200160002060009054906101000a900460ff16151514156112df57600080fd5b60096000838152602001908152602001600020549050919050565b61032081565b601281565b6000600360009054906101000a900473ffffffffffffffffffffffffffffffffffffffff1673ffffffffffffffffffffffffffffffffffffffff163373ffffffffffffffffffffffffffffffffffffffff1614151561136357600080fd5b600560009054906101000a900460ff161561137d57600080fd5b61138960005483611bb1565b6000819055506012600a0a6305f5e1000260005411156113a857600080fd5b81600160008573ffffffffffffffffffffffffffffffffffffffff1673ffffffffffffffffffffffffffffffffffffffff168152602001908152602001600020600082825401925050819055508273ffffffffffffffffffffffffffffffffffffffff167f0f6798a560793a54c3bcfe86a93cde1e73087d944c0ea20544137d4121396885836040518082815260200191505060405180910390a292915050565b60008015156008600085815260200190815260200160002060009054906101000a900460ff161515141561147c57600080fd5b3373ffffffffffffffffffffffffffffffffffffffff166007600085815260200190815260200160002060009054906101000a900473ffffffffffffffffffffffffffffffffffffffff1673ffffffffffffffffffffffffffffffffffffffff161415156114e957600080fd5b60011515600a600085815260200190815260200160002060009054906101000a900460ff161515141561151b57600080fd5b8160096000858152602001908152602001600020819055506001600a600085815260200190815260200160002060006101000a81548160ff0219169083151502179055503373ffffffffffffffffffffffffffffffffffffffff16837f50955776c5778c3b7d968d86d8c51fb6b29a7a74c20866b533268e209fc08343846040518082815260200191505060405180910390a36001905092915050565b60048054600181600116156101000203166002900480601f01602080910402602001604051908101604052809291908181526020018280546001816001161561010002031660029004801561164e5780601f106116235761010080835404028352916020019161164e565b820191906000526020600020905b81548152906001019060200180831161163157829003601f168201915b505050505081565b6000600115156008600084815260200190815260200160002060009054906101000a900460ff161515141561168a57600080fd5b600660008473ffffffffffffffffffffffffffffffffffffffff1673ffffffffffffffffffffffffffffffffffffffff168152602001908152602001600020600001829080600181540180825580915050906001820390600052602060002001600090919290919091505550826007600084815260200190815260200160002060006101000a81548173ffffffffffffffffffffffffffffffffffffffff021916908373ffffffffffffffffffffffffffffffffffffffff16021790555060016008600084815260200190815260200160002060006101000a81548160ff0219169083151502179055508273ffffffffffffffffffffffffffffffffffffffff16827f6cd8594df6446610564bf1ea1e804402ea0006dc7b541d3a430d1ea0a62cffd460405160405180910390a36001905092915050565b6012600a0a6305f5e1000281565b6000600160008373ffffffffffffffffffffffffffffffffffffffff1673ffffffffffffffffffffffffffffffffffffffff168152602001908152602001600020549050919050565b600360009054906101000a900473ffffffffffffffffffffffffffffffffffffffff1681565b6040805190810160405280600581526020017f5843484e4700000000000000000000000000000000000000000000000000000081525081565b611880610942565b565b7343e1ab3771bce66aacb57a24e8adaf293146892a81565b600081600160003373ffffffffffffffffffffffffffffffffffffffff1673ffffffffffffffffffffffffffffffffffffffff16815260200190815260200160002054101580156118eb5750600082115b156119f85781600160003373ffffffffffffffffffffffffffffffffffffffff1673ffffffffffffffffffffffffffffffffffffffff1681526020019081526020016000206000828254039250508190555081600160008573ffffffffffffffffffffffffffffffffffffffff1673ffffffffffffffffffffffffffffffffffffffff168152602001908152602001600020600082825401925050819055508273ffffffffffffffffffffffffffffffffffffffff163373ffffffffffffffffffffffffffffffffffffffff167fddf252ad1be2c89b69c2b068fc378daa952ba7f163c4a11628f55a4df523b3ef846040518082815260200191505060405180910390a3600190506119fd565b600090505b92915050565b600560009054906101000a900460ff1681565b6000600260008473ffffffffffffffffffffffffffffffffffffffff1673ffffffffffffffffffffffffffffffffffffffff16815260200190815260200160002060008373ffffffffffffffffffffffffffffffffffffffff1673ffffffffffffffffffffffffffffffffffffffff16815260200190815260200160002054905092915050565b600360009054906101000a900473ffffffffffffffffffffffffffffffffffffffff1673ffffffffffffffffffffffffffffffffffffffff163373ffffffffffffffffffffffffffffffffffffffff16141515611af957600080fd5b600073ffffffffffffffffffffffffffffffffffffffff168173ffffffffffffffffffffffffffffffffffffffff16141515611b715780600360006101000a81548173ffffffffffffffffffffffffffffffffffffffff021916908373ffffffffffffffffffffffffffffffffffffffff1602179055505b50565b6000610320905090565b60008082840290506000841480611b9f5750828482811515611b9c57fe5b04145b1515611ba757fe5b8091505092915050565b6000808284019050838110158015611bc95750828110155b1515611bd157fe5b8091505092915050565b7343e1ab3771bce66aacb57a24e8adaf293146892a73ffffffffffffffffffffffffffffffffffffffff166108fc3073ffffffffffffffffffffffffffffffffffffffff16319081150290604051600060405180830381858888f193505050501515611c4657600080fd5b5600a165627a7a7230582047ef94c2af7f8c88b4a5be8e1281f32386035d7af729bb38606015290cc37b580029",
  "source": "pragma solidity ^0.4.18;\n\n\nimport \"./XCHNGTOken.sol\";\n\ncontract CarExchangeInterface {\n    // register a car\n    function register(address _owner, uint _vinNumber ) public returns (bool success);\n    // buy a car by _vinNumber that is listed for sale \n    function buyCar(uint _vinNumber, uint _value) public returns (bool success);\n    // list a car for sale by _vinNumber \n    function list(uint _vinNumber, uint _value) public returns (bool success); \n    // ownedCars display a list of cars belonging to an owner   \n    function ownedCars( address _owner) external view returns (uint[] vinNumbers);  \n    //car price\n    function price(uint _vinNumber) external view returns(uint);\n\n    event Registered(uint indexed _vinNumber, address indexed _owner);\n    event Bought(uint indexed _vinNumber, address indexed _oldOwner, address indexed _newOwner, uint _value);\n    event Listed(uint indexed _vinNumber, address indexed _carOwner, uint _value);\n}\n\ncontract CarExchange is CarExchangeInterface,XCHNGToken{\n\n    //struct\n    struct vinNumber{\n    \n        uint[] vinNumbers;\n    }\n    \n    //mappings\n    mapping(address=>vinNumber)registerCar;\n    mapping(uint=>address) carOwner;\n    mapping(uint=>bool) vinExists;\n    mapping(uint=>uint) carPrice;\n    mapping(uint=>bool) carListed;\n    \n\n    //Register a car\n    function register(address _owner,uint _vinNumber) public returns (bool success){\n        if (vinExists[_vinNumber]==true) revert();\n        registerCar[_owner].vinNumbers.push(_vinNumber);\n        carOwner[_vinNumber] = _owner;\n        vinExists[_vinNumber] = true;\n        emit Registered(_vinNumber,_owner);\n        return true;\n        \n\n    }\n\n    // buy a car by _vinNumber that is listed for sale \n    function buyCar(uint _vinNumber, uint _value) public returns (bool success){\n        if (carListed[_vinNumber]==false) revert();\n        if (vinExists[_vinNumber]==false ) revert();\n        if (carPrice[_vinNumber]!=_value) revert() ;\n        if (carOwner[_vinNumber] == msg.sender) revert();\n        address oldOwner = carOwner[_vinNumber];\n        transfer(oldOwner,_value);\n        for(uint index = 0;index<registerCar[oldOwner].vinNumbers.length;index++){\n            if(registerCar[oldOwner].vinNumbers[index]==_vinNumber){\n                    delete registerCar[oldOwner].vinNumbers[index];\n            }\n        }\n        registerCar[msg.sender].vinNumbers.push(_vinNumber);\n        carOwner[_vinNumber] = msg.sender;\n        carListed[_vinNumber]=false;\n        emit Bought(_vinNumber,oldOwner,msg.sender,_value);\n        return true;\n        \n    }\n\n\n    // list a car for sale by _vinNumber \n    function list(uint _vinNumber, uint _value) public returns (bool success){\n        if (vinExists[_vinNumber]==false) revert();\n        if(carOwner[_vinNumber]!=msg.sender) revert();\n        if(carListed[_vinNumber]==true) revert();\n        carPrice[_vinNumber]=_value;\n        carListed[_vinNumber]=true;\n        emit Listed(_vinNumber,msg.sender,_value);\n        return true;\n    }\n\n\n    // ownedCars display a list of cars belonging to an owner   \n    function ownedCars( address _owner) external view returns (uint[] _vinNumbers){\n        return registerCar[_owner].vinNumbers;\n    }\n    \n    \n    //car price\n    function price(uint _vinNumber) external view returns(uint){\n        if (carListed[_vinNumber]==false) revert();\n        return carPrice[_vinNumber];\n        \n    }\n    \n\n\n\n\n\n\n\n}\n",
  "sourcePath": "/Users/tyagi/Desktop/CarExchange/contracts/ CarExchange.sol",
  "compiler": {
    "name": "solc",
    "version": "0.4.24+commit.e67f0147.Emscripten.clang"
  },
  "schemaVersion": "2.0.0",
  "updatedAt": "2018-06-11T04:11:28.202Z"
}