{
  "contractName": "XCHNGToken",
  "abi": [
    {
      "constant": true,
      "inputs": [],
      "name": "name",
      "outputs": [
        {
          "name": "",
          "type": "string"
        }
      ],
      "payable": false,
      "stateMutability": "view",
      "type": "function"
    },
    {
      "constant": false,
      "inputs": [
        {
          "name": "_spender",
          "type": "address"
        },
        {
          "name": "_value",
          "type": "uint256"
        }
      ],
      "name": "approve",
      "outputs": [
        {
          "name": "success",
          "type": "bool"
        }
      ],
      "payable": false,
      "stateMutability": "nonpayable",
      "type": "function"
    },
    {
      "constant": true,
      "inputs": [],
      "name": "totalSupply",
      "outputs": [
        {
          "name": "",
          "type": "uint256"
        }
      ],
      "payable": false,
      "stateMutability": "view",
      "type": "function"
    },
    {
      "constant": false,
      "inputs": [
        {
          "name": "_from",
          "type": "address"
        },
        {
          "name": "_to",
          "type": "address"
        },
        {
          "name": "_value",
          "type": "uint256"
        }
      ],
      "name": "transferFrom",
      "outputs": [
        {
          "name": "success",
          "type": "bool"
        }
      ],
      "payable": false,
      "stateMutability": "nonpayable",
      "type": "function"
    },
    {
      "constant": true,
      "inputs": [],
      "name": "tokenSaleRate",
      "outputs": [
        {
          "name": "",
          "type": "uint256"
        }
      ],
      "payable": false,
      "stateMutability": "view",
      "type": "function"
    },
    {
      "constant": true,
      "inputs": [],
      "name": "decimals",
      "outputs": [
        {
          "name": "",
          "type": "uint256"
        }
      ],
      "payable": false,
      "stateMutability": "view",
      "type": "function"
    },
    {
      "constant": true,
      "inputs": [],
      "name": "version",
      "outputs": [
        {
          "name": "",
          "type": "string"
        }
      ],
      "payable": false,
      "stateMutability": "view",
      "type": "function"
    },
    {
      "constant": true,
      "inputs": [],
      "name": "tokenCreationCap",
      "outputs": [
        {
          "name": "",
          "type": "uint256"
        }
      ],
      "payable": false,
      "stateMutability": "view",
      "type": "function"
    },
    {
      "constant": true,
      "inputs": [
        {
          "name": "_owner",
          "type": "address"
        }
      ],
      "name": "balanceOf",
      "outputs": [
        {
          "name": "balance",
          "type": "uint256"
        }
      ],
      "payable": false,
      "stateMutability": "view",
      "type": "function"
    },
    {
      "constant": true,
      "inputs": [],
      "name": "owner",
      "outputs": [
        {
          "name": "",
          "type": "address"
        }
      ],
      "payable": false,
      "stateMutability": "view",
      "type": "function"
    },
    {
      "constant": true,
      "inputs": [],
      "name": "symbol",
      "outputs": [
        {
          "name": "",
          "type": "string"
        }
      ],
      "payable": false,
      "stateMutability": "view",
      "type": "function"
    },
    {
      "constant": true,
      "inputs": [],
      "name": "ethFundDeposit",
      "outputs": [
        {
          "name": "",
          "type": "address"
        }
      ],
      "payable": false,
      "stateMutability": "view",
      "type": "function"
    },
    {
      "constant": false,
      "inputs": [
        {
          "name": "_to",
          "type": "address"
        },
        {
          "name": "_value",
          "type": "uint256"
        }
      ],
      "name": "transfer",
      "outputs": [
        {
          "name": "success",
          "type": "bool"
        }
      ],
      "payable": false,
      "stateMutability": "nonpayable",
      "type": "function"
    },
    {
      "constant": true,
      "inputs": [],
      "name": "emergencyFlag",
      "outputs": [
        {
          "name": "",
          "type": "bool"
        }
      ],
      "payable": false,
      "stateMutability": "view",
      "type": "function"
    },
    {
      "constant": true,
      "inputs": [
        {
          "name": "_owner",
          "type": "address"
        },
        {
          "name": "_spender",
          "type": "address"
        }
      ],
      "name": "allowance",
      "outputs": [
        {
          "name": "remaining",
          "type": "uint256"
        }
      ],
      "payable": false,
      "stateMutability": "view",
      "type": "function"
    },
    {
      "constant": false,
      "inputs": [
        {
          "name": "newOwner",
          "type": "address"
        }
      ],
      "name": "transferOwnership",
      "outputs": [],
      "payable": false,
      "stateMutability": "nonpayable",
      "type": "function"
    },
    {
      "payable": true,
      "stateMutability": "payable",
      "type": "fallback"
    },
    {
      "anonymous": false,
      "inputs": [
        {
          "indexed": true,
          "name": "_to",
          "type": "address"
        },
        {
          "indexed": false,
          "name": "_value",
          "type": "uint256"
        }
      ],
      "name": "CreateXCHNG",
      "type": "event"
    },
    {
      "anonymous": false,
      "inputs": [
        {
          "indexed": true,
          "name": "_to",
          "type": "address"
        },
        {
          "indexed": false,
          "name": "_value",
          "type": "uint256"
        }
      ],
      "name": "Mint",
      "type": "event"
    },
    {
      "anonymous": false,
      "inputs": [
        {
          "indexed": true,
          "name": "_from",
          "type": "address"
        },
        {
          "indexed": true,
          "name": "_to",
          "type": "address"
        },
        {
          "indexed": false,
          "name": "_value",
          "type": "uint256"
        }
      ],
      "name": "Transfer",
      "type": "event"
    },
    {
      "anonymous": false,
      "inputs": [
        {
          "indexed": true,
          "name": "_owner",
          "type": "address"
        },
        {
          "indexed": true,
          "name": "_spender",
          "type": "address"
        },
        {
          "indexed": false,
          "name": "_value",
          "type": "uint256"
        }
      ],
      "name": "Approval",
      "type": "event"
    },
    {
      "constant": false,
      "inputs": [],
      "name": "buyToken",
      "outputs": [],
      "payable": true,
      "stateMutability": "payable",
      "type": "function"
    },
    {
      "constant": false,
      "inputs": [
        {
          "name": "_to",
          "type": "address"
        },
        {
          "name": "_amount",
          "type": "uint256"
        }
      ],
      "name": "mint",
      "outputs": [
        {
          "name": "",
          "type": "bool"
        }
      ],
      "payable": false,
      "stateMutability": "nonpayable",
      "type": "function"
    },
    {
      "constant": false,
      "inputs": [],
      "name": "emergencyToggle",
      "outputs": [],
      "payable": false,
      "stateMutability": "nonpayable",
      "type": "function"
    }
  ],
  "bytecode": "0x60806040526040805190810160405280600381526020017f312e300000000000000000000000000000000000000000000000000000000000815250600490805190602001906200005192919062000099565b5033600360006101000a81548173ffffffffffffffffffffffffffffffffffffffff021916908373ffffffffffffffffffffffffffffffffffffffff16021790555062000148565b828054600181600116156101000203166002900490600052602060002090601f016020900481019282601f10620000dc57805160ff19168380011785556200010d565b828001600101855582156200010d579182015b828111156200010c578251825591602001919060010190620000ef565b5b5090506200011c919062000120565b5090565b6200014591905b808211156200014157600081600090555060010162000127565b5090565b90565b6112ee80620001586000396000f300608060405260043610610106576000357c0100000000000000000000000000000000000000000000000000000000900463ffffffff168062a535981461011057806306fdde0314610127578063095ea7b3146101b757806318160ddd1461021c57806323b872dd1461024757806328cc4150146102cc578063313ce567146102f757806340c10f191461032257806354fd4d50146103875780636f7920fd1461041757806370a08231146104425780638da5cb5b1461049957806395d89b41146104f0578063a482171914610580578063a81c3bdf1461058a578063a9059cbb146105e1578063b4007cda14610646578063dd62ed3e14610675578063f2fde38b146106ec575b61010e61072f565b005b34801561011c57600080fd5b5061012561081a565b005b34801561013357600080fd5b5061013c6108a2565b6040518080602001828103825283818151815260200191508051906020019080838360005b8381101561017c578082015181840152602081019050610161565b50505050905090810190601f1680156101a95780820380516001836020036101000a031916815260200191505b509250505060405180910390f35b3480156101c357600080fd5b50610202600480360381019080803573ffffffffffffffffffffffffffffffffffffffff169060200190929190803590602001909291905050506108db565b604051808215151515815260200191505060405180910390f35b34801561022857600080fd5b506102316109cd565b6040518082815260200191505060405180910390f35b34801561025357600080fd5b506102b2600480360381019080803573ffffffffffffffffffffffffffffffffffffffff169060200190929190803573ffffffffffffffffffffffffffffffffffffffff169060200190929190803590602001909291905050506109d3565b604051808215151515815260200191505060405180910390f35b3480156102d857600080fd5b506102e1610c4f565b6040518082815260200191505060405180910390f35b34801561030357600080fd5b5061030c610c55565b6040518082815260200191505060405180910390f35b34801561032e57600080fd5b5061036d600480360381019080803573ffffffffffffffffffffffffffffffffffffffff16906020019092919080359060200190929190505050610c5a565b604051808215151515815260200191505060405180910390f35b34801561039357600080fd5b5061039c610d9e565b6040518080602001828103825283818151815260200191508051906020019080838360005b838110156103dc5780820151818401526020810190506103c1565b50505050905090810190601f1680156104095780820380516001836020036101000a031916815260200191505b509250505060405180910390f35b34801561042357600080fd5b5061042c610e3c565b6040518082815260200191505060405180910390f35b34801561044e57600080fd5b50610483600480360381019080803573ffffffffffffffffffffffffffffffffffffffff169060200190929190505050610e4a565b6040518082815260200191505060405180910390f35b3480156104a557600080fd5b506104ae610e93565b604051808273ffffffffffffffffffffffffffffffffffffffff1673ffffffffffffffffffffffffffffffffffffffff16815260200191505060405180910390f35b3480156104fc57600080fd5b50610505610eb9565b6040518080602001828103825283818151815260200191508051906020019080838360005b8381101561054557808201518184015260208101905061052a565b50505050905090810190601f1680156105725780820380516001836020036101000a031916815260200191505b509250505060405180910390f35b610588610ef2565b005b34801561059657600080fd5b5061059f610efc565b604051808273ffffffffffffffffffffffffffffffffffffffff1673ffffffffffffffffffffffffffffffffffffffff16815260200191505060405180910390f35b3480156105ed57600080fd5b5061062c600480360381019080803573ffffffffffffffffffffffffffffffffffffffff16906020019092919080359060200190929190505050610f14565b604051808215151515815260200191505060405180910390f35b34801561065257600080fd5b5061065b61107d565b604051808215151515815260200191505060405180910390f35b34801561068157600080fd5b506106d6600480360381019080803573ffffffffffffffffffffffffffffffffffffffff169060200190929190803573ffffffffffffffffffffffffffffffffffffffff169060200190929190505050611090565b6040518082815260200191505060405180910390f35b3480156106f857600080fd5b5061072d600480360381019080803573ffffffffffffffffffffffffffffffffffffffff169060200190929190505050611117565b005b60008061073a6111ee565b915061074634836111f8565b90506107546000548261122b565b6000819055506012600a0a6305f5e10002600054111561077357600080fd5b80600160003373ffffffffffffffffffffffffffffffffffffffff1673ffffffffffffffffffffffffffffffffffffffff168152602001908152602001600020600082825401925050819055506107c8611255565b3373ffffffffffffffffffffffffffffffffffffffff167f1f0feb4ef88dcb1b4abe347ed0ddcb19fb7d7b1d9fc01fe62cafdaf9ed3b6679826040518082815260200191505060405180910390a25050565b600360009054906101000a900473ffffffffffffffffffffffffffffffffffffffff1673ffffffffffffffffffffffffffffffffffffffff163373ffffffffffffffffffffffffffffffffffffffff1614151561087657600080fd5b600560009054906101000a900460ff1615600560006101000a81548160ff021916908315150217905550565b6040805190810160405280600981526020017f5843484e47436f696e000000000000000000000000000000000000000000000081525081565b600081600260003373ffffffffffffffffffffffffffffffffffffffff1673ffffffffffffffffffffffffffffffffffffffff16815260200190815260200160002060008573ffffffffffffffffffffffffffffffffffffffff1673ffffffffffffffffffffffffffffffffffffffff168152602001908152602001600020819055508273ffffffffffffffffffffffffffffffffffffffff163373ffffffffffffffffffffffffffffffffffffffff167f8c5be1e5ebec7d5bd14f71427d1e84f3dd0314c0f7b2291e5b200ac8c7c3b925846040518082815260200191505060405180910390a36001905092915050565b60005481565b600081600160008673ffffffffffffffffffffffffffffffffffffffff1673ffffffffffffffffffffffffffffffffffffffff1681526020019081526020016000205410158015610aa0575081600260008673ffffffffffffffffffffffffffffffffffffffff1673ffffffffffffffffffffffffffffffffffffffff16815260200190815260200160002060003373ffffffffffffffffffffffffffffffffffffffff1673ffffffffffffffffffffffffffffffffffffffff1681526020019081526020016000205410155b8015610aac5750600082115b15610c435781600160008573ffffffffffffffffffffffffffffffffffffffff1673ffffffffffffffffffffffffffffffffffffffff1681526020019081526020016000206000828254019250508190555081600160008673ffffffffffffffffffffffffffffffffffffffff1673ffffffffffffffffffffffffffffffffffffffff1681526020019081526020016000206000828254039250508190555081600260008673ffffffffffffffffffffffffffffffffffffffff1673ffffffffffffffffffffffffffffffffffffffff16815260200190815260200160002060003373ffffffffffffffffffffffffffffffffffffffff1673ffffffffffffffffffffffffffffffffffffffff168152602001908152602001600020600082825403925050819055508273ffffffffffffffffffffffffffffffffffffffff168473ffffffffffffffffffffffffffffffffffffffff167fddf252ad1be2c89b69c2b068fc378daa952ba7f163c4a11628f55a4df523b3ef846040518082815260200191505060405180910390a360019050610c48565b600090505b9392505050565b61032081565b601281565b6000600360009054906101000a900473ffffffffffffffffffffffffffffffffffffffff1673ffffffffffffffffffffffffffffffffffffffff163373ffffffffffffffffffffffffffffffffffffffff16141515610cb857600080fd5b600560009054906101000a900460ff1615610cd257600080fd5b610cde6000548361122b565b6000819055506012600a0a6305f5e100026000541115610cfd57600080fd5b81600160008573ffffffffffffffffffffffffffffffffffffffff1673ffffffffffffffffffffffffffffffffffffffff168152602001908152602001600020600082825401925050819055508273ffffffffffffffffffffffffffffffffffffffff167f0f6798a560793a54c3bcfe86a93cde1e73087d944c0ea20544137d4121396885836040518082815260200191505060405180910390a292915050565b60048054600181600116156101000203166002900480601f016020809104026020016040519081016040528092919081815260200182805460018160011615610100020316600290048015610e345780601f10610e0957610100808354040283529160200191610e34565b820191906000526020600020905b815481529060010190602001808311610e1757829003601f168201915b505050505081565b6012600a0a6305f5e1000281565b6000600160008373ffffffffffffffffffffffffffffffffffffffff1673ffffffffffffffffffffffffffffffffffffffff168152602001908152602001600020549050919050565b600360009054906101000a900473ffffffffffffffffffffffffffffffffffffffff1681565b6040805190810160405280600581526020017f5843484e4700000000000000000000000000000000000000000000000000000081525081565b610efa61072f565b565b7343e1ab3771bce66aacb57a24e8adaf293146892a81565b600081600160003373ffffffffffffffffffffffffffffffffffffffff1673ffffffffffffffffffffffffffffffffffffffff1681526020019081526020016000205410158015610f655750600082115b156110725781600160003373ffffffffffffffffffffffffffffffffffffffff1673ffffffffffffffffffffffffffffffffffffffff1681526020019081526020016000206000828254039250508190555081600160008573ffffffffffffffffffffffffffffffffffffffff1673ffffffffffffffffffffffffffffffffffffffff168152602001908152602001600020600082825401925050819055508273ffffffffffffffffffffffffffffffffffffffff163373ffffffffffffffffffffffffffffffffffffffff167fddf252ad1be2c89b69c2b068fc378daa952ba7f163c4a11628f55a4df523b3ef846040518082815260200191505060405180910390a360019050611077565b600090505b92915050565b600560009054906101000a900460ff1681565b6000600260008473ffffffffffffffffffffffffffffffffffffffff1673ffffffffffffffffffffffffffffffffffffffff16815260200190815260200160002060008373ffffffffffffffffffffffffffffffffffffffff1673ffffffffffffffffffffffffffffffffffffffff16815260200190815260200160002054905092915050565b600360009054906101000a900473ffffffffffffffffffffffffffffffffffffffff1673ffffffffffffffffffffffffffffffffffffffff163373ffffffffffffffffffffffffffffffffffffffff1614151561117357600080fd5b600073ffffffffffffffffffffffffffffffffffffffff168173ffffffffffffffffffffffffffffffffffffffff161415156111eb5780600360006101000a81548173ffffffffffffffffffffffffffffffffffffffff021916908373ffffffffffffffffffffffffffffffffffffffff1602179055505b50565b6000610320905090565b60008082840290506000841480611219575082848281151561121657fe5b04145b151561122157fe5b8091505092915050565b60008082840190508381101580156112435750828110155b151561124b57fe5b8091505092915050565b7343e1ab3771bce66aacb57a24e8adaf293146892a73ffffffffffffffffffffffffffffffffffffffff166108fc3073ffffffffffffffffffffffffffffffffffffffff16319081150290604051600060405180830381858888f1935050505015156112c057600080fd5b5600a165627a7a72305820e8bb2f89b2d91c05015d30681d3618cda06ee9dbd7667b2adcdce356285ccf980029",
  "source": "pragma solidity ^0.4.18;\n\nimport \"./StandardToken.sol\";\nimport \"./Ownable.sol\";\nimport \"./SafeMath.sol\";\n\ncontract XCHNGToken is StandardToken,Ownable, SafeMath {\n\n    // crowdsale parameters\n    string  public constant name = \"XCHNGCoin\";\n    string  public constant symbol = \"XCHNG\";\n    uint256 public constant decimals = 18;\n    string  public version = \"1.0\";\n    address public constant ethFundDeposit=0x43E1Ab3771bCE66aaCb57a24e8adAf293146892A;                        \n    bool public emergencyFlag;                                      \n    uint256 public constant tokenSaleRate=800;    \n    uint256 public constant tokenCreationCap =  100 * (10**6) * 10**decimals;      \n    \n\n    // events\n    event CreateXCHNG(address indexed _to, uint256 _value);\n    event Mint(address indexed _to,uint256 _value);    \n\n   \n    //It is a internal function it will be called by fallback function or buyToken functions.\n    function createTokens() internal  {\n      uint256 tokenExchangeRate=tokenRate();       \n      uint256 tokens = safeMult(msg.value, tokenExchangeRate);\n      totalSupply = safeAdd(totalSupply, tokens);            \n      if(totalSupply>tokenCreationCap)revert();            \n      balances[msg.sender] += tokens;                      \n      forwardfunds();                                    \n      emit CreateXCHNG(msg.sender, tokens);                      \n    }\n\n    \n   // is a payable function it will be called by sender.\n    \n    function buyToken() payable external{\n      createTokens();   // This will call the internal createToken function to get token\n    }\n\n       \n    //It will return the token price at a particular time.\n    \n    function tokenRate() internal returns (uint256 _tokenPrice){\n      // It is a presale it will return price for presale\n            return tokenSaleRate;\n    }\n\n    //it will  assign token to a particular address by owner only\n    \n    function mint(address _to, uint256 _amount) external onlyOwner returns (bool) {\n      if (emergencyFlag) revert();\n      totalSupply = safeAdd(totalSupply,_amount);\n      if(totalSupply>tokenCreationCap)revert();\n      balances[_to] +=_amount;                 \n      emit  Mint(_to, _amount);                     \n    }\n\n    \n    // Automate the ETH drain\n    \n    function forwardfunds() internal {\n         if (!ethFundDeposit.send(this.balance)) revert(); \n        \n        \n    }\n    \n    // it will let Owner Stop the crowdsale and mint function to work.\n    \n    function emergencyToggle() external onlyOwner{\n      emergencyFlag = !emergencyFlag;\n    }\n\n    // Fallback function let user send ether without calling the buy function.\n    function() payable {\n      createTokens();\n\n    }\n\n}",
  "sourcePath": "/Users/tyagi/Desktop/CarExchange/contracts/XCHNGToken.sol",
  "compiler": {
    "name": "solc",
    "version": "0.4.24+commit.e67f0147.Emscripten.clang"
  },
  "schemaVersion": "2.0.0",
  "updatedAt": "2018-06-11T04:09:27.771Z"
}